{
  "contractName": "GovFundAllocation",
  "abi": [
    {
      "inputs": [],
      "stateMutability": "nonpayable",
      "type": "constructor"
    },
    {
      "anonymous": false,
      "inputs": [
        {
          "indexed": false,
          "internalType": "string",
          "name": "projectId",
          "type": "string"
        },
        {
          "indexed": false,
          "internalType": "uint256",
          "name": "newEstimate",
          "type": "uint256"
        }
      ],
      "name": "EstimateUpdated",
      "type": "event"
    },
    {
      "anonymous": false,
      "inputs": [
        {
          "indexed": true,
          "internalType": "uint256",
          "name": "recordId",
          "type": "uint256"
        },
        {
          "indexed": true,
          "internalType": "string",
          "name": "projectId",
          "type": "string"
        },
        {
          "indexed": false,
          "internalType": "string",
          "name": "eventName",
          "type": "string"
        },
        {
          "indexed": false,
          "internalType": "string",
          "name": "contractorName",
          "type": "string"
        },
        {
          "indexed": false,
          "internalType": "uint256",
          "name": "projectEstimate",
          "type": "uint256"
        },
        {
          "indexed": false,
          "internalType": "uint256",
          "name": "fundAllocated",
          "type": "uint256"
        },
        {
          "indexed": false,
          "internalType": "uint256",
          "name": "totalFundTillNow",
          "type": "uint256"
        },
        {
          "indexed": false,
          "internalType": "uint256",
          "name": "timestamp",
          "type": "uint256"
        },
        {
          "indexed": false,
          "internalType": "address",
          "name": "recordedBy",
          "type": "address"
        }
      ],
      "name": "FundAllocated",
      "type": "event"
    },
    {
      "anonymous": false,
      "inputs": [
        {
          "indexed": false,
          "internalType": "address",
          "name": "officer",
          "type": "address"
        }
      ],
      "name": "OfficerAdded",
      "type": "event"
    },
    {
      "anonymous": false,
      "inputs": [
        {
          "indexed": false,
          "internalType": "address",
          "name": "officer",
          "type": "address"
        }
      ],
      "name": "OfficerRemoved",
      "type": "event"
    },
    {
      "inputs": [],
      "name": "admin",
      "outputs": [
        {
          "internalType": "address",
          "name": "",
          "type": "address"
        }
      ],
      "stateMutability": "view",
      "type": "function",
      "constant": true
    },
    {
      "inputs": [
        {
          "internalType": "address",
          "name": "",
          "type": "address"
        }
      ],
      "name": "authorizedOfficers",
      "outputs": [
        {
          "internalType": "bool",
          "name": "",
          "type": "bool"
        }
      ],
      "stateMutability": "view",
      "type": "function",
      "constant": true
    },
    {
      "inputs": [
        {
          "internalType": "string",
          "name": "",
          "type": "string"
        }
      ],
      "name": "projectEstimates",
      "outputs": [
        {
          "internalType": "uint256",
          "name": "",
          "type": "uint256"
        }
      ],
      "stateMutability": "view",
      "type": "function",
      "constant": true
    },
    {
      "inputs": [
        {
          "internalType": "string",
          "name": "",
          "type": "string"
        },
        {
          "internalType": "uint256",
          "name": "",
          "type": "uint256"
        }
      ],
      "name": "projectRecords",
      "outputs": [
        {
          "internalType": "uint256",
          "name": "",
          "type": "uint256"
        }
      ],
      "stateMutability": "view",
      "type": "function",
      "constant": true
    },
    {
      "inputs": [
        {
          "internalType": "string",
          "name": "",
          "type": "string"
        }
      ],
      "name": "projectTotalFunds",
      "outputs": [
        {
          "internalType": "uint256",
          "name": "",
          "type": "uint256"
        }
      ],
      "stateMutability": "view",
      "type": "function",
      "constant": true
    },
    {
      "inputs": [],
      "name": "recordCounter",
      "outputs": [
        {
          "internalType": "uint256",
          "name": "",
          "type": "uint256"
        }
      ],
      "stateMutability": "view",
      "type": "function",
      "constant": true
    },
    {
      "inputs": [
        {
          "internalType": "uint256",
          "name": "",
          "type": "uint256"
        }
      ],
      "name": "records",
      "outputs": [
        {
          "internalType": "uint256",
          "name": "recordId",
          "type": "uint256"
        },
        {
          "internalType": "string",
          "name": "eventName",
          "type": "string"
        },
        {
          "internalType": "string",
          "name": "contractorName",
          "type": "string"
        },
        {
          "internalType": "uint256",
          "name": "projectEstimate",
          "type": "uint256"
        },
        {
          "internalType": "uint256",
          "name": "fundAllocated",
          "type": "uint256"
        },
        {
          "internalType": "uint256",
          "name": "totalFundTillNow",
          "type": "uint256"
        },
        {
          "internalType": "uint256",
          "name": "timestamp",
          "type": "uint256"
        },
        {
          "internalType": "address",
          "name": "recordedBy",
          "type": "address"
        },
        {
          "internalType": "string",
          "name": "remarks",
          "type": "string"
        },
        {
          "internalType": "bool",
          "name": "exists",
          "type": "bool"
        }
      ],
      "stateMutability": "view",
      "type": "function",
      "constant": true
    },
    {
      "inputs": [
        {
          "internalType": "address",
          "name": "_officer",
          "type": "address"
        }
      ],
      "name": "addOfficer",
      "outputs": [],
      "stateMutability": "nonpayable",
      "type": "function"
    },
    {
      "inputs": [
        {
          "internalType": "address",
          "name": "_officer",
          "type": "address"
        }
      ],
      "name": "removeOfficer",
      "outputs": [],
      "stateMutability": "nonpayable",
      "type": "function"
    },
    {
      "inputs": [
        {
          "internalType": "string",
          "name": "_projectId",
          "type": "string"
        },
        {
          "internalType": "uint256",
          "name": "_estimate",
          "type": "uint256"
        }
      ],
      "name": "setProjectEstimate",
      "outputs": [],
      "stateMutability": "nonpayable",
      "type": "function"
    },
    {
      "inputs": [
        {
          "internalType": "string",
          "name": "_projectId",
          "type": "string"
        },
        {
          "internalType": "string",
          "name": "_eventName",
          "type": "string"
        },
        {
          "internalType": "string",
          "name": "_contractorName",
          "type": "string"
        },
        {
          "internalType": "uint256",
          "name": "_fundAllocated",
          "type": "uint256"
        },
        {
          "internalType": "string",
          "name": "_remarks",
          "type": "string"
        }
      ],
      "name": "allocateFund",
      "outputs": [
        {
          "internalType": "uint256",
          "name": "recordId",
          "type": "uint256"
        }
      ],
      "stateMutability": "nonpayable",
      "type": "function"
    },
    {
      "inputs": [
        {
          "internalType": "uint256",
          "name": "_recordId",
          "type": "uint256"
        }
      ],
      "name": "getRecord",
      "outputs": [
        {
          "components": [
            {
              "internalType": "uint256",
              "name": "recordId",
              "type": "uint256"
            },
            {
              "internalType": "string",
              "name": "eventName",
              "type": "string"
            },
            {
              "internalType": "string",
              "name": "contractorName",
              "type": "string"
            },
            {
              "internalType": "uint256",
              "name": "projectEstimate",
              "type": "uint256"
            },
            {
              "internalType": "uint256",
              "name": "fundAllocated",
              "type": "uint256"
            },
            {
              "internalType": "uint256",
              "name": "totalFundTillNow",
              "type": "uint256"
            },
            {
              "internalType": "uint256",
              "name": "timestamp",
              "type": "uint256"
            },
            {
              "internalType": "address",
              "name": "recordedBy",
              "type": "address"
            },
            {
              "internalType": "string",
              "name": "remarks",
              "type": "string"
            },
            {
              "internalType": "bool",
              "name": "exists",
              "type": "bool"
            }
          ],
          "internalType": "struct GovFundAllocation.FundRecord",
          "name": "",
          "type": "tuple"
        }
      ],
      "stateMutability": "view",
      "type": "function",
      "constant": true
    },
    {
      "inputs": [
        {
          "internalType": "string",
          "name": "_projectId",
          "type": "string"
        }
      ],
      "name": "getProjectRecordIds",
      "outputs": [
        {
          "internalType": "uint256[]",
          "name": "",
          "type": "uint256[]"
        }
      ],
      "stateMutability": "view",
      "type": "function",
      "constant": true
    },
    {
      "inputs": [
        {
          "internalType": "string",
          "name": "_projectId",
          "type": "string"
        }
      ],
      "name": "getProjectHistory",
      "outputs": [
        {
          "components": [
            {
              "internalType": "uint256",
              "name": "recordId",
              "type": "uint256"
            },
            {
              "internalType": "string",
              "name": "eventName",
              "type": "string"
            },
            {
              "internalType": "string",
              "name": "contractorName",
              "type": "string"
            },
            {
              "internalType": "uint256",
              "name": "projectEstimate",
              "type": "uint256"
            },
            {
              "internalType": "uint256",
              "name": "fundAllocated",
              "type": "uint256"
            },
            {
              "internalType": "uint256",
              "name": "totalFundTillNow",
              "type": "uint256"
            },
            {
              "internalType": "uint256",
              "name": "timestamp",
              "type": "uint256"
            },
            {
              "internalType": "address",
              "name": "recordedBy",
              "type": "address"
            },
            {
              "internalType": "string",
              "name": "remarks",
              "type": "string"
            },
            {
              "internalType": "bool",
              "name": "exists",
              "type": "bool"
            }
          ],
          "internalType": "struct GovFundAllocation.FundRecord[]",
          "name": "",
          "type": "tuple[]"
        }
      ],
      "stateMutability": "view",
      "type": "function",
      "constant": true
    },
    {
      "inputs": [
        {
          "internalType": "string",
          "name": "_projectId",
          "type": "string"
        }
      ],
      "name": "getProjectSummary",
      "outputs": [
        {
          "internalType": "uint256",
          "name": "estimate",
          "type": "uint256"
        },
        {
          "internalType": "uint256",
          "name": "totalAllocated",
          "type": "uint256"
        },
        {
          "internalType": "uint256",
          "name": "remaining",
          "type": "uint256"
        },
        {
          "internalType": "uint256",
          "name": "numberOfTransactions",
          "type": "uint256"
        }
      ],
      "stateMutability": "view",
      "type": "function",
      "constant": true
    },
    {
      "inputs": [
        {
          "internalType": "string",
          "name": "_projectId",
          "type": "string"
        }
      ],
      "name": "verifyProjectIntegrity",
      "outputs": [
        {
          "internalType": "bool",
          "name": "isValid",
          "type": "bool"
        },
        {
          "internalType": "uint256",
          "name": "computedTotal",
          "type": "uint256"
        }
      ],
      "stateMutability": "view",
      "type": "function",
      "constant": true
    }
  ],
  "bytecode": "0x608060405234801561001057600080fd5b50336000806101000a81548173ffffffffffffffffffffffffffffffffffffffff021916908373ffffffffffffffffffffffffffffffffffffffff16021790555060018060003373ffffffffffffffffffffffffffffffffffffffff1673ffffffffffffffffffffffffffffffffffffffff16815260200190815260200160002060006101000a81548160ff021916908315150217905550612d98806100b76000396000f3fe608060405234801561001057600080fd5b50600436106101005760003560e01c80637599be5d11610097578063b512aa9b11610066578063b512aa9b14610315578063d9803cb214610345578063f851a44014610361578063ffbf4e8a1461037f57610100565b80637599be5d1461027b5780637d235f271461029957806396e98077146102b5578063986204ef146102e557610100565b806359b13567116100d357806359b13567146101cf5780635ab6bb62146101ff5780635fb7f8311461022f578063719a0f8c1461025f57610100565b806303e9e609146101055780631381a7a81461013557806334461067146101665780634a7b76771461019f575b600080fd5b61011f600480360381019061011a9190611943565b6103b2565b60405161012c9190611b53565b60405180910390f35b61014f600480360381019061014a9190611bda565b61069c565b60405161015d929190611c45565b60405180910390f35b610180600480360381019061017b9190611943565b6107a1565b6040516101969a99989796959493929190611cc7565b60405180910390f35b6101b960048036038101906101b49190611da4565b6109ba565b6040516101c69190611dd1565b60405180910390f35b6101e960048036038101906101e49190611f1c565b6109da565b6040516101f69190611f78565b60405180910390f35b61021960048036038101906102149190611f93565b610a21565b6040516102269190611f78565b60405180910390f35b61024960048036038101906102449190611f93565b610a4f565b6040516102569190611f78565b60405180910390f35b61027960048036038101906102749190611da4565b610a7d565b005b610283610b9d565b6040516102909190611f78565b60405180910390f35b6102b360048036038101906102ae9190611fdc565b610ba3565b005b6102cf60048036038101906102ca9190611bda565b610cd9565b6040516102dc91906120eb565b60405180910390f35b6102ff60048036038101906102fa9190611bda565b610d52565b60405161030c91906122b7565b60405180910390f35b61032f600480360381019061032a91906122d9565b6110fb565b60405161033c9190611f78565b60405180910390f35b61035f600480360381019061035a9190611da4565b6116b3565b005b6103696117d2565b60405161037691906123d5565b60405180910390f35b61039960048036038101906103949190611bda565b6117f6565b6040516103a994939291906123f0565b60405180910390f35b6103ba61188e565b6003600083815260200190815260200160002060090160009054906101000a900460ff1661041d576040517f08c379a000000000000000000000000000000000000000000000000000000000815260040161041490612481565b60405180910390fd5b600360008381526020019081526020016000206040518061014001604052908160008201548152602001600182018054610456906124d0565b80601f0160208091040260200160405190810160405280929190818152602001828054610482906124d0565b80156104cf5780601f106104a4576101008083540402835291602001916104cf565b820191906000526020600020905b8154815290600101906020018083116104b257829003601f168201915b505050505081526020016002820180546104e8906124d0565b80601f0160208091040260200160405190810160405280929190818152602001828054610514906124d0565b80156105615780601f1061053657610100808354040283529160200191610561565b820191906000526020600020905b81548152906001019060200180831161054457829003601f168201915b50505050508152602001600382015481526020016004820154815260200160058201548152602001600682015481526020016007820160009054906101000a900473ffffffffffffffffffffffffffffffffffffffff1673ffffffffffffffffffffffffffffffffffffffff1673ffffffffffffffffffffffffffffffffffffffff1681526020016008820180546105f8906124d0565b80601f0160208091040260200160405190810160405280929190818152602001828054610624906124d0565b80156106715780601f1061064657610100808354040283529160200191610671565b820191906000526020600020905b81548152906001019060200180831161065457829003601f168201915b505050505081526020016009820160009054906101000a900460ff1615151515815250509050919050565b6000806000600285856040516106b3929190612531565b908152602001604051809103902080548060200260200160405190810160405280929190818152602001828054801561070b57602002820191906000526020600020905b8154815260200190600101908083116106f7575b505050505090506000915060005b815181101561077357600360008383815181106107395761073861254a565b5b60200260200101518152602001908152602001600020600401548361075e91906125a8565b9250808061076b906125dc565b915050610719565b5060048585604051610786929190612531565b90815260200160405180910390205482149250509250929050565b60036020528060005260406000206000915090508060000154908060010180546107ca906124d0565b80601f01602080910402602001604051908101604052809291908181526020018280546107f6906124d0565b80156108435780601f1061081857610100808354040283529160200191610843565b820191906000526020600020905b81548152906001019060200180831161082657829003601f168201915b505050505090806002018054610858906124d0565b80601f0160208091040260200160405190810160405280929190818152602001828054610884906124d0565b80156108d15780601f106108a6576101008083540402835291602001916108d1565b820191906000526020600020905b8154815290600101906020018083116108b457829003601f168201915b5050505050908060030154908060040154908060050154908060060154908060070160009054906101000a900473ffffffffffffffffffffffffffffffffffffffff1690806008018054610924906124d0565b80601f0160208091040260200160405190810160405280929190818152602001828054610950906124d0565b801561099d5780601f106109725761010080835404028352916020019161099d565b820191906000526020600020905b81548152906001019060200180831161098057829003601f168201915b5050505050908060090160009054906101000a900460ff1690508a565b60016020528060005260406000206000915054906101000a900460ff1681565b6002828051602081018201805184825260208301602085012081835280955050505050508181548110610a0c57600080fd5b90600052602060002001600091509150505481565b6005818051602081018201805184825260208301602085012081835280955050505050506000915090505481565b6004818051602081018201805184825260208301602085012081835280955050505050506000915090505481565b60008054906101000a900473ffffffffffffffffffffffffffffffffffffffff1673ffffffffffffffffffffffffffffffffffffffff163373ffffffffffffffffffffffffffffffffffffffff1614610b0b576040517f08c379a0000000000000000000000000000000000000000000000000000000008152600401610b0290612696565b60405180910390fd5b6000600160008373ffffffffffffffffffffffffffffffffffffffff1673ffffffffffffffffffffffffffffffffffffffff16815260200190815260200160002060006101000a81548160ff0219169083151502179055507fc71ac73682f965d639a2f97202d5b162f5ea75f1ef0e933bad7f1db870a4c25481604051610b9291906123d5565b60405180910390a150565b60065481565b60008054906101000a900473ffffffffffffffffffffffffffffffffffffffff1673ffffffffffffffffffffffffffffffffffffffff163373ffffffffffffffffffffffffffffffffffffffff1614610c31576040517f08c379a0000000000000000000000000000000000000000000000000000000008152600401610c2890612696565b60405180910390fd5b60008111610c74576040517f08c379a0000000000000000000000000000000000000000000000000000000008152600401610c6b90612702565b60405180910390fd5b8060058484604051610c87929190612531565b9081526020016040518091039020819055507f0db6e00fd06437432f0ced9285b128c1209a1e56dc9aab585aa62bd7462d85ce838383604051610ccc9392919061274f565b60405180910390a1505050565b606060028383604051610ced929190612531565b9081526020016040518091039020805480602002602001604051908101604052809291908181526020018280548015610d4557602002820191906000526020600020905b815481526020019060010190808311610d31575b5050505050905092915050565b6060600060028484604051610d68929190612531565b9081526020016040518091039020805480602002602001604051908101604052809291908181526020018280548015610dc057602002820191906000526020600020905b815481526020019060010190808311610dac575b505050505090506000815167ffffffffffffffff811115610de457610de3611df1565b5b604051908082528060200260200182016040528015610e1d57816020015b610e0a61188e565b815260200190600190039081610e025790505b50905060005b82518110156110ef5760036000848381518110610e4357610e4261254a565b5b602002602001015181526020019081526020016000206040518061014001604052908160008201548152602001600182018054610e7f906124d0565b80601f0160208091040260200160405190810160405280929190818152602001828054610eab906124d0565b8015610ef85780601f10610ecd57610100808354040283529160200191610ef8565b820191906000526020600020905b815481529060010190602001808311610edb57829003601f168201915b50505050508152602001600282018054610f11906124d0565b80601f0160208091040260200160405190810160405280929190818152602001828054610f3d906124d0565b8015610f8a5780601f10610f5f57610100808354040283529160200191610f8a565b820191906000526020600020905b815481529060010190602001808311610f6d57829003601f168201915b50505050508152602001600382015481526020016004820154815260200160058201548152602001600682015481526020016007820160009054906101000a900473ffffffffffffffffffffffffffffffffffffffff1673ffffffffffffffffffffffffffffffffffffffff1673ffffffffffffffffffffffffffffffffffffffff168152602001600882018054611021906124d0565b80601f016020809104026020016040519081016040528092919081815260200182805461104d906124d0565b801561109a5780601f1061106f5761010080835404028352916020019161109a565b820191906000526020600020905b81548152906001019060200180831161107d57829003601f168201915b505050505081526020016009820160009054906101000a900460ff1615151515815250508282815181106110d1576110d061254a565b5b602002602001018190525080806110e7906125dc565b915050610e23565b50809250505092915050565b6000600160003373ffffffffffffffffffffffffffffffffffffffff1673ffffffffffffffffffffffffffffffffffffffff16815260200190815260200160002060009054906101000a900460ff16806111a0575060008054906101000a900473ffffffffffffffffffffffffffffffffffffffff1673ffffffffffffffffffffffffffffffffffffffff163373ffffffffffffffffffffffffffffffffffffffff16145b6111df576040517f08c379a00000000000000000000000000000000000000000000000000000000081526004016111d6906127cd565b60405180910390fd5b60008a8a905011611225576040517f08c379a000000000000000000000000000000000000000000000000000000000815260040161121c90612839565b60405180910390fd5b6000888890501161126b576040517f08c379a0000000000000000000000000000000000000000000000000000000008152600401611262906128a5565b60405180910390fd5b600086869050116112b1576040517f08c379a00000000000000000000000000000000000000000000000000000000081526004016112a890612911565b60405180910390fd5b600084116112f4576040517f08c379a00000000000000000000000000000000000000000000000000000000081526004016112eb9061297d565b60405180910390fd5b8360048b8b604051611307929190612531565b9081526020016040518091039020600082825461132491906125a8565b92505081905550600060048b8b60405161133f929190612531565b9081526020016040518091039020549050600060058c8c604051611364929190612531565b908152602001604051809103902054905060008111156113c257808211156113c1576040517f08c379a00000000000000000000000000000000000000000000000000000000081526004016113b890612a0f565b60405180910390fd5b5b600660008154809291906113d5906125dc565b919050555060065492506040518061014001604052808481526020018b8b8080601f016020809104026020016040519081016040528093929190818152602001838380828437600081840152601f19601f82011690508083019250505050505050815260200189898080601f016020809104026020016040519081016040528093929190818152602001838380828437600081840152601f19601f8201169050808301925050505050505081526020018281526020018781526020018381526020014281526020013373ffffffffffffffffffffffffffffffffffffffff16815260200186868080601f016020809104026020016040519081016040528093929190818152602001838380828437600081840152601f19601f820116905080830192505050505050508152602001600115158152506003600085815260200190815260200160002060008201518160000155602082015181600101908161153c9190612bdb565b5060408201518160020190816115529190612bdb565b50606082015181600301556080820151816004015560a0820151816005015560c0820151816006015560e08201518160070160006101000a81548173ffffffffffffffffffffffffffffffffffffffff021916908373ffffffffffffffffffffffffffffffffffffffff1602179055506101008201518160080190816115d89190612bdb565b506101208201518160090160006101000a81548160ff02191690831515021790555090505060028c8c60405161160f929190612531565b90815260200160405180910390208390806001815401808255809150506001900390600052602060002001600090919091909150558b8b604051611654929190612531565b6040518091039020837f7f0fb49bfe41c6442497030d48ea7bcd1a86b69ac9f0cd2df767843508710e7e8c8c8c8c878d8a423360405161169c99989796959493929190612cad565b60405180910390a350509998505050505050505050565b60008054906101000a900473ffffffffffffffffffffffffffffffffffffffff1673ffffffffffffffffffffffffffffffffffffffff163373ffffffffffffffffffffffffffffffffffffffff1614611741576040517f08c379a000000000000000000000000000000000000000000000000000000000815260040161173890612696565b60405180910390fd5b60018060008373ffffffffffffffffffffffffffffffffffffffff1673ffffffffffffffffffffffffffffffffffffffff16815260200190815260200160002060006101000a81548160ff0219169083151502179055507f0a5e350574f3293d09c9df68b92156ccec15be9e07b6cab9616ec2b486d2a4d9816040516117c791906123d5565b60405180910390a150565b60008054906101000a900473ffffffffffffffffffffffffffffffffffffffff1681565b6000806000806005868660405161180e929190612531565b908152602001604051809103902054935060048686604051611831929190612531565b908152602001604051809103902054925082841161185057600061185d565b828461185c9190612d2e565b5b915060028686604051611871929190612531565b908152602001604051809103902080549050905092959194509250565b60405180610140016040528060008152602001606081526020016060815260200160008152602001600081526020016000815260200160008152602001600073ffffffffffffffffffffffffffffffffffffffff168152602001606081526020016000151581525090565b6000604051905090565b600080fd5b600080fd5b6000819050919050565b6119208161190d565b811461192b57600080fd5b50565b60008135905061193d81611917565b92915050565b60006020828403121561195957611958611903565b5b60006119678482850161192e565b91505092915050565b6119798161190d565b82525050565b600081519050919050565b600082825260208201905092915050565b60005b838110156119b957808201518184015260208101905061199e565b60008484015250505050565b6000601f19601f8301169050919050565b60006119e18261197f565b6119eb818561198a565b93506119fb81856020860161199b565b611a04816119c5565b840191505092915050565b600073ffffffffffffffffffffffffffffffffffffffff82169050919050565b6000611a3a82611a0f565b9050919050565b611a4a81611a2f565b82525050565b60008115159050919050565b611a6581611a50565b82525050565b600061014083016000830151611a846000860182611970565b5060208301518482036020860152611a9c82826119d6565b91505060408301518482036040860152611ab682826119d6565b9150506060830151611acb6060860182611970565b506080830151611ade6080860182611970565b5060a0830151611af160a0860182611970565b5060c0830151611b0460c0860182611970565b5060e0830151611b1760e0860182611a41565b50610100830151848203610100860152611b3182826119d6565b915050610120830151611b48610120860182611a5c565b508091505092915050565b60006020820190508181036000830152611b6d8184611a6b565b905092915050565b600080fd5b600080fd5b600080fd5b60008083601f840112611b9a57611b99611b75565b5b8235905067ffffffffffffffff811115611bb757611bb6611b7a565b5b602083019150836001820283011115611bd357611bd2611b7f565b5b9250929050565b60008060208385031215611bf157611bf0611903565b5b600083013567ffffffffffffffff811115611c0f57611c0e611908565b5b611c1b85828601611b84565b92509250509250929050565b611c3081611a50565b82525050565b611c3f8161190d565b82525050565b6000604082019050611c5a6000830185611c27565b611c676020830184611c36565b9392505050565b600082825260208201905092915050565b6000611c8a8261197f565b611c948185611c6e565b9350611ca481856020860161199b565b611cad816119c5565b840191505092915050565b611cc181611a2f565b82525050565b600061014082019050611cdd600083018d611c36565b8181036020830152611cef818c611c7f565b90508181036040830152611d03818b611c7f565b9050611d12606083018a611c36565b611d1f6080830189611c36565b611d2c60a0830188611c36565b611d3960c0830187611c36565b611d4660e0830186611cb8565b818103610100830152611d598185611c7f565b9050611d69610120830184611c27565b9b9a5050505050505050505050565b611d8181611a2f565b8114611d8c57600080fd5b50565b600081359050611d9e81611d78565b92915050565b600060208284031215611dba57611db9611903565b5b6000611dc884828501611d8f565b91505092915050565b6000602082019050611de66000830184611c27565b92915050565b600080fd5b7f4e487b7100000000000000000000000000000000000000000000000000000000600052604160045260246000fd5b611e29826119c5565b810181811067ffffffffffffffff82111715611e4857611e47611df1565b5b80604052505050565b6000611e5b6118f9565b9050611e678282611e20565b919050565b600067ffffffffffffffff821115611e8757611e86611df1565b5b611e90826119c5565b9050602081019050919050565b82818337600083830152505050565b6000611ebf611eba84611e6c565b611e51565b905082815260208101848484011115611edb57611eda611dec565b5b611ee6848285611e9d565b509392505050565b600082601f830112611f0357611f02611b75565b5b8135611f13848260208601611eac565b91505092915050565b60008060408385031215611f3357611f32611903565b5b600083013567ffffffffffffffff811115611f5157611f50611908565b5b611f5d85828601611eee565b9250506020611f6e8582860161192e565b9150509250929050565b6000602082019050611f8d6000830184611c36565b92915050565b600060208284031215611fa957611fa8611903565b5b600082013567ffffffffffffffff811115611fc757611fc6611908565b5b611fd384828501611eee565b91505092915050565b600080600060408486031215611ff557611ff4611903565b5b600084013567ffffffffffffffff81111561201357612012611908565b5b61201f86828701611b84565b935093505060206120328682870161192e565b9150509250925092565b600081519050919050565b600082825260208201905092915050565b6000819050602082019050919050565b60006120748383611970565b60208301905092915050565b6000602082019050919050565b60006120988261203c565b6120a28185612047565b93506120ad83612058565b8060005b838110156120de5781516120c58882612068565b97506120d083612080565b9250506001810190506120b1565b5085935050505092915050565b60006020820190508181036000830152612105818461208d565b905092915050565b600081519050919050565b600082825260208201905092915050565b6000819050602082019050919050565b6000610140830160008301516121526000860182611970565b506020830151848203602086015261216a82826119d6565b9150506040830151848203604086015261218482826119d6565b91505060608301516121996060860182611970565b5060808301516121ac6080860182611970565b5060a08301516121bf60a0860182611970565b5060c08301516121d260c0860182611970565b5060e08301516121e560e0860182611a41565b506101008301518482036101008601526121ff82826119d6565b915050610120830151612216610120860182611a5c565b508091505092915050565b600061222d8383612139565b905092915050565b6000602082019050919050565b600061224d8261210d565b6122578185612118565b93508360208202850161226985612129565b8060005b858110156122a557848403895281516122868582612221565b945061229183612235565b925060208a0199505060018101905061226d565b50829750879550505050505092915050565b600060208201905081810360008301526122d18184612242565b905092915050565b600080600080600080600080600060a08a8c0312156122fb576122fa611903565b5b60008a013567ffffffffffffffff81111561231957612318611908565b5b6123258c828d01611b84565b995099505060208a013567ffffffffffffffff81111561234857612347611908565b5b6123548c828d01611b84565b975097505060408a013567ffffffffffffffff81111561237757612376611908565b5b6123838c828d01611b84565b955095505060606123968c828d0161192e565b93505060808a013567ffffffffffffffff8111156123b7576123b6611908565b5b6123c38c828d01611b84565b92509250509295985092959850929598565b60006020820190506123ea6000830184611cb8565b92915050565b60006080820190506124056000830187611c36565b6124126020830186611c36565b61241f6040830185611c36565b61242c6060830184611c36565b95945050505050565b7f5265636f7264206e6f7420666f756e6400000000000000000000000000000000600082015250565b600061246b601083611c6e565b915061247682612435565b602082019050919050565b6000602082019050818103600083015261249a8161245e565b9050919050565b7f4e487b7100000000000000000000000000000000000000000000000000000000600052602260045260246000fd5b600060028204905060018216806124e857607f821691505b6020821081036124fb576124fa6124a1565b5b50919050565b600081905092915050565b60006125188385612501565b9350612525838584611e9d565b82840190509392505050565b600061253e82848661250c565b91508190509392505050565b7f4e487b7100000000000000000000000000000000000000000000000000000000600052603260045260246000fd5b7f4e487b7100000000000000000000000000000000000000000000000000000000600052601160045260246000fd5b60006125b38261190d565b91506125be8361190d565b92508282019050808211156125d6576125d5612579565b5b92915050565b60006125e78261190d565b91507fffffffffffffffffffffffffffffffffffffffffffffffffffffffffffffffff820361261957612618612579565b5b600182019050919050565b7f4f6e6c792061646d696e2063616e20706572666f726d2074686973206163746960008201527f6f6e000000000000000000000000000000000000000000000000000000000000602082015250565b6000612680602283611c6e565b915061268b82612624565b604082019050919050565b600060208201905081810360008301526126af81612673565b9050919050565b7f457374696d617465206d757374206265203e2030000000000000000000000000600082015250565b60006126ec601483611c6e565b91506126f7826126b6565b602082019050919050565b6000602082019050818103600083015261271b816126df565b9050919050565b600061272e8385611c6e565b935061273b838584611e9d565b612744836119c5565b840190509392505050565b6000604082019050818103600083015261276a818587612722565b90506127796020830184611c36565b949350505050565b7f4e6f7420617574686f72697a6564000000000000000000000000000000000000600082015250565b60006127b7600e83611c6e565b91506127c282612781565b602082019050919050565b600060208201905081810360008301526127e6816127aa565b9050919050565b7f50726f6a65637420494420726571756972656400000000000000000000000000600082015250565b6000612823601383611c6e565b915061282e826127ed565b602082019050919050565b6000602082019050818103600083015261285281612816565b9050919050565b7f4576656e74206e616d6520726571756972656400000000000000000000000000600082015250565b600061288f601383611c6e565b915061289a82612859565b602082019050919050565b600060208201905081810360008301526128be81612882565b9050919050565b7f436f6e74726163746f72206e616d652072657175697265640000000000000000600082015250565b60006128fb601883611c6e565b9150612906826128c5565b602082019050919050565b6000602082019050818103600083015261292a816128ee565b9050919050565b7f46756e6420616d6f756e74206d757374206265203e2030000000000000000000600082015250565b6000612967601783611c6e565b915061297282612931565b602082019050919050565b600060208201905081810360008301526129968161295a565b9050919050565b7f546f74616c20616c6c6f63617465642066756e6473206578636565642070726f60008201527f6a65637420657374696d61746521000000000000000000000000000000000000602082015250565b60006129f9602e83611c6e565b9150612a048261299d565b604082019050919050565b60006020820190508181036000830152612a28816129ec565b9050919050565b60008190508160005260206000209050919050565b60006020601f8301049050919050565b600082821b905092915050565b600060088302612a917fffffffffffffffffffffffffffffffffffffffffffffffffffffffffffffffff82612a54565b612a9b8683612a54565b95508019841693508086168417925050509392505050565b6000819050919050565b6000612ad8612ad3612ace8461190d565b612ab3565b61190d565b9050919050565b6000819050919050565b612af283612abd565b612b06612afe82612adf565b848454612a61565b825550505050565b600090565b612b1b612b0e565b612b26818484612ae9565b505050565b5b81811015612b4a57612b3f600082612b13565b600181019050612b2c565b5050565b601f821115612b8f57612b6081612a2f565b612b6984612a44565b81016020851015612b78578190505b612b8c612b8485612a44565b830182612b2b565b50505b505050565b600082821c905092915050565b6000612bb260001984600802612b94565b1980831691505092915050565b6000612bcb8383612ba1565b9150826002028217905092915050565b612be48261197f565b67ffffffffffffffff811115612bfd57612bfc611df1565b5b612c0782546124d0565b612c12828285612b4e565b600060209050601f831160018114612c455760008415612c33578287015190505b612c3d8582612bbf565b865550612ca5565b601f198416612c5386612a2f565b60005b82811015612c7b57848901518255600182019150602085019450602081019050612c56565b86831015612c985784890151612c94601f891682612ba1565b8355505b6001600288020188555050505b505050505050565b600060e0820190508181036000830152612cc8818b8d612722565b90508181036020830152612cdd81898b612722565b9050612cec6040830188611c36565b612cf96060830187611c36565b612d066080830186611c36565b612d1360a0830185611c36565b612d2060c0830184611cb8565b9a9950505050505050505050565b6000612d398261190d565b9150612d448361190d565b9250828203905081811115612d5c57612d5b612579565b5b9291505056fea2646970667358221220b948b5c98986123459a8af903467c866d26ad2aaa52abfc276a4cc130f53c45c64736f6c63430008130033",
  "immutableReferences": {},
  "source": "// SPDX-License-Identifier: MIT\npragma solidity ^0.8.19;\n\ncontract GovFundAllocation {\n\n    address public admin;\n\n    mapping(address => bool) public authorizedOfficers;\n\n    modifier onlyAdmin() {\n        require(msg.sender == admin, \"Only admin can perform this action\");\n        _;\n    }\n\n    modifier onlyOfficer() {\n        require(\n            authorizedOfficers[msg.sender] || msg.sender == admin,\n            \"Not authorized\"\n        );\n        _;\n    }\n\n    // ─────────────────────────────────────────────\n    //  DATA STRUCTURES\n    // ─────────────────────────────────────────────\n\n    struct FundRecord {\n        uint256 recordId;           // Unique ID of this record\n        string  eventName;          // Name of the govt project/scheme\n        string  contractorName;     // Contractor assigned\n        uint256 projectEstimate;    // Total estimated cost (in wei or custom unit)\n        uint256 fundAllocated;      // Fund allocated in THIS transaction\n        uint256 totalFundTillNow;   // Cumulative fund allocated to project so far\n        uint256 timestamp;          // Block timestamp\n        address recordedBy;         // Officer who recorded this\n        string  remarks;            // Optional remarks / notes\n        bool    exists;             // Guard flag\n    }\n\n    // projectId => list of record IDs\n    mapping(string => uint256[]) public projectRecords;\n\n    // recordId => FundRecord\n    mapping(uint256 => FundRecord) public records;\n\n    // projectId => cumulative funds\n    mapping(string => uint256) public projectTotalFunds;\n\n    // projectId => estimate (set once, can be updated by admin)\n    mapping(string => uint256) public projectEstimates;\n\n    uint256 public recordCounter;\n\n    // ─────────────────────────────────────────────\n    //  EVENTS  (emitted on every allocation)\n    // ─────────────────────────────────────────────\n\n    event FundAllocated(\n        uint256 indexed recordId,\n        string  indexed projectId,\n        string  eventName,\n        string  contractorName,\n        uint256 projectEstimate,\n        uint256 fundAllocated,\n        uint256 totalFundTillNow,\n        uint256 timestamp,\n        address recordedBy\n    );\n\n    event OfficerAdded(address officer);\n    event OfficerRemoved(address officer);\n    event EstimateUpdated(string projectId, uint256 newEstimate);\n\n    // ─────────────────────────────────────────────\n    //  CONSTRUCTOR\n    // ─────────────────────────────────────────────\n\n    constructor() {\n        admin = msg.sender;\n        authorizedOfficers[msg.sender] = true;\n    }\n\n    // ─────────────────────────────────────────────\n    //  ADMIN FUNCTIONS\n    // ─────────────────────────────────────────────\n\n    function addOfficer(address _officer) external onlyAdmin {\n        authorizedOfficers[_officer] = true;\n        emit OfficerAdded(_officer);\n    }\n\n    function removeOfficer(address _officer) external onlyAdmin {\n        authorizedOfficers[_officer] = false;\n        emit OfficerRemoved(_officer);\n    }\n\n    /**\n     * @dev Set or update the project estimate.\n     *      Should ideally be set before any allocations.\n     */\n    function setProjectEstimate(\n        string calldata _projectId,\n        uint256 _estimate\n    ) external onlyAdmin {\n        require(_estimate > 0, \"Estimate must be > 0\");\n        projectEstimates[_projectId] = _estimate;\n        emit EstimateUpdated(_projectId, _estimate);\n    }\n\n    // ─────────────────────────────────────────────\n    //  CORE FUNCTION: Allocate Funds\n    // ─────────────────────────────────────────────\n\n    /**\n     * @dev Record a new fund allocation for a government project.\n     *\n     * @param _projectId       Short unique ID for the project  (e.g. \"PROJ-2024-001\")\n     * @param _eventName       Descriptive name  (e.g. \"NH-44 Highway Widening Phase 2\")\n     * @param _contractorName  Name of the contractor\n     * @param _fundAllocated   Amount being allocated in this transaction (in smallest unit)\n     * @param _remarks         Any additional remarks\n     */\n    function allocateFund(\n        string calldata _projectId,\n        string calldata _eventName,\n        string calldata _contractorName,\n        uint256         _fundAllocated,\n        string calldata _remarks\n    ) external onlyOfficer returns (uint256 recordId) {\n\n        require(bytes(_projectId).length > 0,      \"Project ID required\");\n        require(bytes(_eventName).length > 0,      \"Event name required\");\n        require(bytes(_contractorName).length > 0, \"Contractor name required\");\n        require(_fundAllocated > 0,                \"Fund amount must be > 0\");\n\n        // Cumulative total for this project\n        projectTotalFunds[_projectId] += _fundAllocated;\n        uint256 newTotal = projectTotalFunds[_projectId];\n\n        // Warn if total exceeds estimate (doesn't revert — just emit, handle in frontend)\n        uint256 estimate = projectEstimates[_projectId];\n        if (estimate > 0) {\n            require(\n                newTotal <= estimate,\n                \"Total allocated funds exceed project estimate!\"\n            );\n        }\n\n        // Assign record ID\n        recordCounter++;\n        recordId = recordCounter;\n\n        // Store record\n        records[recordId] = FundRecord({\n            recordId:         recordId,\n            eventName:        _eventName,\n            contractorName:   _contractorName,\n            projectEstimate:  estimate,\n            fundAllocated:    _fundAllocated,\n            totalFundTillNow: newTotal,\n            timestamp:        block.timestamp,\n            recordedBy:       msg.sender,\n            remarks:          _remarks,\n            exists:           true\n        });\n\n        // Link record to project\n        projectRecords[_projectId].push(recordId);\n\n        emit FundAllocated(\n            recordId,\n            _projectId,\n            _eventName,\n            _contractorName,\n            estimate,\n            _fundAllocated,\n            newTotal,\n            block.timestamp,\n            msg.sender\n        );\n    }\n\n    // ─────────────────────────────────────────────\n    //  VIEW / QUERY FUNCTIONS\n    // ─────────────────────────────────────────────\n\n    /**\n     * @dev Get a single fund record by its ID.\n     */\n    function getRecord(uint256 _recordId)\n        external\n        view\n        returns (FundRecord memory)\n    {\n        require(records[_recordId].exists, \"Record not found\");\n        return records[_recordId];\n    }\n\n    /**\n     * @dev Get all record IDs for a project.\n     */\n    function getProjectRecordIds(string calldata _projectId)\n        external\n        view\n        returns (uint256[] memory)\n    {\n        return projectRecords[_projectId];\n    }\n\n    /**\n     * @dev Get full history of all allocations for a project.\n     */\n    function getProjectHistory(string calldata _projectId)\n        external\n        view\n        returns (FundRecord[] memory)\n    {\n        uint256[] memory ids = projectRecords[_projectId];\n        FundRecord[] memory history = new FundRecord[](ids.length);\n        for (uint256 i = 0; i < ids.length; i++) {\n            history[i] = records[ids[i]];\n        }\n        return history;\n    }\n\n    /**\n     * @dev Get project summary — estimate, total allocated, and remaining budget.\n     */\n    function getProjectSummary(string calldata _projectId)\n        external\n        view\n        returns (\n            uint256 estimate,\n            uint256 totalAllocated,\n            uint256 remaining,\n            uint256 numberOfTransactions\n        )\n    {\n        estimate             = projectEstimates[_projectId];\n        totalAllocated       = projectTotalFunds[_projectId];\n        remaining            = estimate > totalAllocated ? estimate - totalAllocated : 0;\n        numberOfTransactions = projectRecords[_projectId].length;\n    }\n\n    /**\n     * @dev Verify integrity — returns true if a record's stored total matches\n     *      the sum of all individual allocations for that project up to that record.\n     *      Useful to prove data hasn't been tampered.\n     */\n    function verifyProjectIntegrity(string calldata _projectId)\n        external\n        view\n        returns (bool isValid, uint256 computedTotal)\n    {\n        uint256[] memory ids = projectRecords[_projectId];\n        computedTotal = 0;\n        for (uint256 i = 0; i < ids.length; i++) {\n            computedTotal += records[ids[i]].fundAllocated;\n        }\n        isValid = (computedTotal == projectTotalFunds[_projectId]);\n    }\n}\n",
  "sourcePath": "C:\\Users\\lekha\\Desktop\\Ayush\\Project\\govchain\\contracts\\GovFundAllocation.sol",
  "compiler": {
    "name": "solc",
    "version": "0.8.19+commit.7dd6d404.Emscripten.clang"
  },
  "schemaVersion": "3.4.16",
  "updatedAt": "2026-04-05T18:45:25.362Z",
  "networkType": "ethereum",
  "devdoc": {
    "kind": "dev",
    "methods": {
      "allocateFund(string,string,string,uint256,string)": {
        "details": "Record a new fund allocation for a government project.",
        "params": {
          "_contractorName": "Name of the contractor",
          "_eventName": "Descriptive name  (e.g. \"NH-44 Highway Widening Phase 2\")",
          "_fundAllocated": "Amount being allocated in this transaction (in smallest unit)",
          "_projectId": "Short unique ID for the project  (e.g. \"PROJ-2024-001\")",
          "_remarks": "Any additional remarks"
        }
      },
      "getProjectHistory(string)": {
        "details": "Get full history of all allocations for a project."
      },
      "getProjectRecordIds(string)": {
        "details": "Get all record IDs for a project."
      },
      "getProjectSummary(string)": {
        "details": "Get project summary — estimate, total allocated, and remaining budget."
      },
      "getRecord(uint256)": {
        "details": "Get a single fund record by its ID."
      },
      "setProjectEstimate(string,uint256)": {
        "details": "Set or update the project estimate.      Should ideally be set before any allocations."
      },
      "verifyProjectIntegrity(string)": {
        "details": "Verify integrity — returns true if a record's stored total matches      the sum of all individual allocations for that project up to that record.      Useful to prove data hasn't been tampered."
      }
    },
    "version": 1
  },
  "userdoc": {
    "kind": "user",
    "methods": {},
    "version": 1
  }
}